:020000040050AA
:100000004252434D63666753000000003200000017
:10001000030110000427004FF4B0010320086070B2
:1000200047000006010401042700010104C05D002F
:1000300000000306FFFFFFFFFFFF00011C0014503C
:100040000000F053000004500000145000001000A5
:0C005000000000000000000000FE0000A6
:101400004252434D63666744000000006882010059
:1014100003030B4359573230383230413100160341
:101420000200000301480004270010B500210C2031
:1014300091F5E3FC04460021072091F5DEFC002C29
:1014400012D0002810D0012101808170074AC0F815
:101450000320002222600B22A280E180A0602046AF
:10146000BDE81040D7F559BF10BD4F0C0000060174
:101470000401042700010BBCDF0400000000000091
:1014800010B5044B9847044B9847BDE81040034BF8
:10149000184700BFF91051004D0C2700C59F5000A0
:1014A00002D0314642F73CB22DE9FF0F284600F04A
:1014B00093F9BDE8FF0F42F742B2000094F84A20CA
:1014C0001AB194F852202CF72DB100F0EFF92CF757
:1014D0002DB10CB4204600F0EEF910B10CBC2CF785
:1014E00012B20CBCBDE8F0810FB42046294600F0D2
:1014F00040FA0FBC15F0040F0CD00FB4204629465B
:1015000000F008FA01280FBC04D1A07B79F7F8F5A8
:1015100070F79BB170F700B24FF0010200F022FEAD
:1015200062F7B8B12046BDE8F04100F025BA0000EE
:101530000FB4304649463A46234600F089FA01285E
:101540000FBC03D1BCF762F198F762B3BDE8F08736
:1015500002B02046BDE8104099F72CB1BDE810401C
:1015600000F096BBC0F8BC1100F09CFB3FF726B022
:10157000BDE8F04F00F0FABB0A20A4F80B0010BD44
:1015800008D00FB4504600F087FD122805D00FBCDC
:101590002DF758B7B0782DF751B70FBC2DF791B78D
:1015A0000FB400F091FD0FBC29F7DAB1034873F7CF
:1015B00003F400F0C3FD73F7EAB400000C680F00F9
:1015C00001D1034810B12068B3F776B3B3F789B3FC
:1015D000115D200003B40848016821F40071016026
:1015E00040F6DC30C0F22000016821F00701891DBF
:1015F000016003BCFEF6BCB5488133004FF21353C3
:10160000C0F207036168994203D0E569D61B7DF7F4
:101610001DB77DF713B700009360D36013610FB45B
:1016200000F0A4FF10B90FBCA9F771B60FBCBDE85C
:10163000F08F1A2C06D1D1F8003243F6F012134085
:1016400090431843C1F80002AAF7EEB07DF735F3D6
:101650000320BDE8F081000048F23810C0F23300EA
:10166000006804F745B7000000F0DAFFB0F718B7DC
:10167000BDE8FC4101F00EB86C6116F77EB30000C6
:10168000016000B501F098F800BD000007D346F2F4
:101690000C61C0F220010B88D11A01F7E3B001F709
:1016A000E3B000000CF72CF048F2DC20C0F233006D
:1016B000016841F0010101600CF728B0411C00D124
:1016C0000025284408F7CAF601F757B6012801D9C2
:1016D00001F7F4B56846494601F08CF8002802D0BD
:1016E000062501F74BB601F713B6384601F099F815
:1016F00001F787F602F70FB001F09AB80068D0F84A
:10170000D81059B12DE9FF01404601F0B1F818B1E8
:10171000BDE8FF0130F714B2BDE8FF0130F715B2A4
:10172000BDE8FF4701F05EB9BDE8F04101F032BA13
:101730000AD02DE9FF0F314601F069FA06D0BDE865
:10174000FF0F301D35F75CB135F768B1BDE8FF0F0D
:1017500035F79EB1204601F0E2FA204667F7A0B2C5
:101760002046BDE8304001F0EABABDE8F04101F0A2
:1017700002BB00003046BDE8F04101F0D3BB807EE3
:1017800000F0EF0008B10B2038BD04F797B400005B
:1017900003B40C98C188022905D103BC0498002821
:1017A00004D0CAF7A1B203BCCAF79EB2CAF747B1C8
:1017B00001F0FFFC0D4629F7C8B5000018B1A5627D
:1017C0002663D1F76DB62820F8BD000002F06EFD4B
:1017D00003460E460DF796B5104901EB401081897E
:1017E000491C818170470D4A4AF6444092F87610B0
:1017F00009B101290AD192F8791041B1012909D022
:10180000022903D0032901D14BF6803070474FF4F1
:101810007A5070474FF4FA407047000020E22000F1
:1018200003490248C1F8A00070470000B9D909086F
:10183000A045200070B50546A0F7F3F4002438B9A0
:10184000164890F83B00C00702D1B0F781F508B107
:101850002C6010E0124EB460124C206840F480708E
:1018600020607CF72FF72860206820F480702060CB
:10187000AFF23F00B060012070BDAFF247000849F1
:101880008860704710B57CF7ADF4074908700020F8
:1018900010BDAFF20F0002490860704740102000F1
:1018A000087D2000DC0B2000C015210017481849D6
:1018B000008A08607047C18840F67B438A1F9A42BD
:1018C00020D20389B3F5FA7F1CD242890A2A19D3A0
:1018D000B2F5486F16D85B1C4B43B3EB820F11DA9D
:1018E000C2787AB14B1E082B00DD08239A4209DC2E
:1018F00082888A4206D8407CC0F30400052801D3C0
:10190000102801D90020704701207047E014200002
:101910000483310070B50646164805680021284644
:1019200061F732F4044605F00300012813D034B106
:1019300096F8E000800702D5042C18D3241FE84352
:1019400080070AD0306D012161F765F7A0420ED300
:10195000A80706D009E044B1EAE7FB2C07D834B168
:10196000F6E7304691F7D5F008B1012070BD0020B0
:1019700070BD7047988B31002DE9FC410646407CD4
:1019800080467AF7FEF50546404684F79BF207004D
:1019900045D007F108007AF716F4040004D107F1E6
:1019A0000C007AF710F40446346003203074207B76
:1019B000F06004F11400B06070606168074609B11E
:1019C000284688472046BBF721F7002827D0C06863
:1019D000800724D595F8DD003C78012801D1062C3C
:1019E0001DD0202140469CF7FCF795F8DD0001282A
:1019F00015D1052C13D10020CDE90000002295F867
:101A0000DE00134662F735F3E86B022140F0040074
:101A1000E86395F8DE00BDE8FC4162F710B3BDE86D
:101A2000FC81000001460020097D132903D007290D
:101A300000D105487047044810387047AFF21B00CA
:101A40000249C1F88801704784425100A47F2000F8
:101A500010B51C461F2803D2114B1B5C8B4209D0CA
:101A60000146104698F79CF06068002198F711F045
:101A7000002010BD012010BD70B50546487D0C4604
:101A8000122803D195F8DE009CF799F721462846E5
:101A9000BDE8704098F7CAB390F8DE009CF78FB7A6
:101AA000944251002DE9F04740484149407E097871
:101AB000884202D90020BDE8F0873E4DE86BC007A0
:101AC00001D00120F7E77DF7F4F081463B48DFF8CD
:101AD000E88000240278D8F8000060E000EB840180
:101AE0000968E1B3A94259D000EB84000668488F29
:101AF00006F5D076012854D1D1F8A80380BB301D5B
:101B000050F776F0D8F800004FF4727A00EB8407B3
:101B100052463968274852F7B6F5307C162810D15E
:101B20002748D6F8E430A0F1E402EC3602F1EC01EB
:101B300002F58272B34202D1C0E9001201E0C0E9AD
:101B400000213868D0F8A80310B91E48C5F8AC03C6
:101B50004646386851467EF727F2306801E01DE0BE
:101B60001FE000EB84000560C5F8F051006800F547
:101B7000D070417D032906D0012906D0022909D061
:101B8000042909D00DE0104900E01049001D50F76C
:101B900026F006E00E49F9E70E49F7E7641C944287
:101BA0009CDB48467DF789F08BE70000A0142000FD
:101BB000905C2000F816200094142000921420005D
:101BC0007C192000A01A2000000E2000F00D20003B
:101BD000F80D2000080E200070B5044674F7BBF71E
:101BE000224E00204FF4461530742148016811B987
:101BF000D5F894100160BE20C5F89400002042F78B
:101C00005BF61C48016941F001010161016841F086
:101C100001010160A079C0B1607C012800D00020E2
:101C200058F740F0B27914494FF48200BAB1134A20
:101C30001268C0F850211248006808600B48BBF7D2
:101C4000F1F3BDE8704074F77CB5227961792068C2
:101C5000BCF779F00B48808AC5F80403E2E70A4A2A
:101C60001268C0F850210948E6E7000024F120007E
:101C70003875200060016500E0044100C4F72000D1
:101C8000CCF72000E0142000C8F72000D0F7200097
:101C900010B5B0F723F40249086020F0004010BDF1
:101CA0005029200070B523480078042837D3224AF1
:101CB0004FF4CA0011788B080364446C8B07DB0E69
:101CC000FF2505FA03F6B44311269E4026434664D9
:101CD00000260664194B1C7844EA0111C0F818125A
:101CE00051788A080264436C8A07D20E9540AB4350
:101CF000022595401D434564066444EA011141F400
:101D00008031C0F81C124FF00111C0F820120121DF
:101D1000C0F824120A48016841F40051016070BD06
:101D20000949084808603EF746B5AFF20B0007497D
:101D30000860704756692000C115210053692000D2
:101D400034023200006CDC0294692000CC6920006F
:101D50000449002008607047034908607047024941
:101D60004860704730502000244B20002DE9FC478C
:101D700090F83970054600F11C06B81CC0B240F05E
:101D8000800100243A48A9F769F2A87B694679F7EF
:101D9000ACF10098DFF8DC8010F0030006D00128D9
:101DA0001BD002281CD003280CD11CE00198A96A82
:101DB000884200981BD9022178F79CF53060B8F86A
:101DC0000000706095F83A00DFF8AC9090B199F897
:101DD0000210684678F754F63BE001210098EBE7E3
:101DE0000221009801E00121009878F783F5306026
:101DF000A86AE6E799F8021099F803000144E8E7B9
:101E0000781C05F12C01C0B28CF7D9F38046DDE9CE
:101E1000001040EA4120194901EB84018867184904
:101E2000E0020860B8F14F0F09D208F1020040EA61
:101E3000C42048F2801108431149091D086028197F
:101E4000641C80F83E7099F80210684678F718F61E
:101E500047466946304679F741F0012803D14F2FB4
:101E600001D2042CCCD385F842402046BDE8FC8743
:101E700004016000E00D2000721B200000E0310032
:101E800000E9310010B504467448006873F7E8F7BC
:101E900001007348B0F8FE004FEA007007D0002838
:101EA00001DA704900E070494831202205E000283D
:101EB00001DA6C4900E06C49182220467CF704F0F6
:101EC00008B1002010BD012010BD70B598B00446C7
:101ED00000F1180506210CA865F770F706222146C7
:101EE0000CA865F78AF7401C44D1604906220E46CB
:101EF000204665F782F7401C3CD1062229460CA8F3
:101F000065F77BF7401C35D106223146284665F738
:101F100074F7401C2ED10622294612A865F7EFF768
:101F20000622214606A865F7EAF706A906232246F7
:101F3000084665F7DBF7224606231146684665F733
:101F4000E7F7694606232246084665F7E1F7474961
:101F50006A4606232439104665F7E3F76A460623E6
:101F600006A9104665F7D4F70622694612A865F758
:101F700044F710B1002018B070BD0120FBE770B528
:101F8000A0B0044600F12005082110A865F716F757
:101F90000822214610A865F730F7401C44D1344987
:101FA00008220E46204665F728F7401C3CD108223F
:101FB000294610A865F721F7401C35D10822314683
:101FC000284665F71AF7401C2ED10822294618A882
:101FD00065F795F70822214608A865F790F708A944
:101FE00008232246084665F781F722460823114652
:101FF000684665F78DF7694608232246084665F767
:1020000087F71B496A4608232439104665F789F784
:102010006A46082308A9104665F77AF70822694638
:1020200018A865F7EAF610B1002020B070BD0120B5
:10203000FBE710B5094C201DFFF724FF08B1002075
:1020400010BD206873F70CF7002804F1040002D0DB
:10205000BDE8104093E7BDE8104036E710D92000F6
:102060004010200068710F00E0D9200088D72000C0
:102070006CD8200010B5941D25F730F1082084F8A5
:10208000290010BD03480C214170017003218170AB
:10209000C17070479E732000401D017A03290BD147
:1020A000084AD0F816109078B1F57A5F20F0C00099
:1020B00004D0B1F5FA5F02D0122070474030907022
:1020C000002070473E5D20002DE9F0410446164E89
:1020D000164D174F24E0174853F7EEF600BB13498F
:1020E000144853F733F6288806EB8000006818B9C7
:1020F000114910207DF7D1F02888FF280CD20B2839
:1021000006D028F7D1F3288806EB8000016805E0A7
:10211000064800F02FF903E0396809B10348884701
:10212000641ED8D2BDE8F081FC690F00E4C820002D
:10213000C41521008CC82000040000810749072035
:1021400081F84A010648027801209040401E4FF66F
:10215000C0721040A1F864007047000040102000D9
:102160002D5C20002DE9F74FDFF8F0810446DFF801
:10217000F0A1D8F800009346A04225D1794F3E68DF
:1021800020E0351FA5421CD0284677F788F618B9FD
:10219000284677F77DF6A0B1BBF1010F03D1A87CEB
:1021A000A17C884207D2A87CA17C884209D99AF8F0
:1021B0000010884205D3019800B105600120BDE8F8
:1021C000FE8F3668BE42DCD10026D8F800004FF002
:1021D000FF35B1464746F8B1C17C03291CD177F7DA
:1021E00055F6032808D03868A17C807C884213D338
:1021F0009AF8001088420FD33F68384676F720F3EC
:10220000A84205D3A84207D1B97CB27C914203D938
:1022100005463E464FF001095348D0F800802CE0B7
:1022200098F80F00A8F10407032824D1387D0D2861
:1022300021D1384677F72AF603280ED0BBF1010FDB
:1022400003D1B87CA17C884207D2B87CA17C8842AB
:1022500011D99AF8001088420DD3384676F7F0F27B
:10226000A84204D307D1B97CB27C914203D9054678
:102270003E464FF00109D8F800803B498845CFD150
:102280003A48076818E0B97BA27C381F914212D9FE
:10229000334A127891420ED3804674F79BF6A842D7
:1022A00005D308D198F81210B27C914203D90546A3
:1022B00046464FF000093F682C488742E3D12C483E
:1022C0004FF00008076824E0381F08F10108BBF14F
:1022D000010F03D1817CA27C914207D2817CA27C38
:1022E000914212D91E4A127891420ED3824674F757
:1022F00071F6A84205D308D19AF81210B27C914227
:1023000003D9054656464FF00009B8F1030F03D232
:102310003F6817488742D7D1681C03D0182D05D3D2
:10232000681E0DE04FF6FF70002609E0B9F1000FBE
:102330003146204602D076F745F301E076F78FF27A
:10234000A18921B1814201D2401A00E00020019907
:1023500000293FF434AF0E6031E70000100E20007A
:10236000D00D2000000E2000080E2000F80D2000E7
:10237000F00D200070B50646057940887AF701F126
:1023800004002AD00F2D06D0112D0CD03046BDE808
:10239000704089F73DB4E06BC0021ED5A06C40F4DC
:1023A0000070A0640EE00D480078C00615D5606C82
:1023B00080050CD594F8DE009CF701F3606C20F4E6
:1023C000007060642046BDE8704089F74DB2A06C93
:1023D000810502D520F40070A06470BDE0142000D7
:1023E0000A48016841F00071016070470849032004
:1023F00008607047074902200870704706490120AD
:10240000087070470549352008707047281532005C
:10241000E08233006C592000876D200002622000AA
:1024200070B54FF44E11012822D004281FD11B4A49
:10243000194801F537719060086840F004000860A1
:10244000086820F0010008601548164C4FF001059F
:102450000560606800B1804702F017FB1248057004
:1024600001F0B2F81148226801689143016070BD23
:1024700001F5A071086820F47F4008604FF000006B
:1024800048600B4940F21450086070BDAFF26F0015
:102490000449886070470000C54A5000687E2000EB
:1024A000D86A2000C81521003F1C2000A875200014
:1024B000A40B200070B52B4D002404EB8400295C94
:1024C00041B1284403794288407800F00F010009A7
:1024D00001F738F7641CE4B2082CEED313F7B5F219
:1024E00001280FD14FF44810816E21F47F4181669D
:1024F0001D48016841F002010160BDE87040002004
:1025000013F719B470BD70B5144606460D4601F7B1
:10251000EEF6002820D0304601F7D7F60121A94079
:10252000884304F00101A940084381B2304601F715
:10253000D6F60C49002305EB061203EB83000D5C75
:102540005DB1084445886D0407D54078904204D1B8
:1025500003EB83000844047170BD5B1CDBB2082BE5
:10256000EBD370BDFC0B200000C4320070B501201D
:102570000026174B0402174D566108291FD004DCB2
:1025800005290FD0072904D114E0202906D03729C6
:1025900001D0002070BD4FF4717101E040F2EC41B8
:1025A000518070BD0B490C3951601021517040F2BF
:1025B000045109E05560567040F2245104E0556022
:1025C0000821517040F2345151809360D46070BD45
:1025D0001C803300B08333000E48016821F4804131
:1025E00001604FF00001C0F8441170470A480068CC
:1025F000400401D0002070470120704710B503F758
:1026000079F720B90548007808B1012010BD0020F5
:1026100010BD00005C81330058813300B8FC2000FD
:102620002DE9F041164800681649174C174D184E11
:10263000884216D01FE0124F308840222B683F1D81
:10264000396844F82010994201D1521EF8D254F84A
:102650002010994209D0401C2960202800D3002076
:102660003080AFF7EBF61F28E5D105490020091FA0
:102670000860BDE8F081BDE8F041AFF7DBB60000CF
:1026800004263500FFFF0F20F80C2000D415210090
:10269000F40C20002DE9FC41074668460AF7A8F62D
:1026A000284EDDE9002430688168C068551A64EB63
:1026B000000419F7BFF6022811D02348016811B3AE
:1026C000A5FB010304FB0131002205FB02111F4A97
:1026D0001F4B12781B7812FB03F2D31720E019F777
:1026E000B5F664214843A0FB0513002202FB053226
:1026F00000FB04240D467DF7DCF10A21B0FBF1F26A
:10270000002328460BE040F6EC30A5FB001304FB49
:102710000030002205FB0204642200230846214603
:1027200098F70CF60B4A0023801841F10001520083
:1027300098F704F631680968084439460AF707F73C
:10274000BDE8FC81EC582000C40B2000BA0B20002F
:10275000B80B200020A107002DE9F04104460D46EA
:102760001EF725F6062805D000201B4920B1088851
:10277000860002E00120F8E70E881848002107884B
:1027800017480068C8301EF739F50146154800683B
:1027900080030CD52068B04209D97A18904206D936
:1027A000421C01D0401A20600120BDE8F081287849
:1027B000401E28700020F8E70B48C16A44F203620B
:1027C00021EA0201C1624FF004010160704708492B
:1027D0000648086070470000800C2000420C200072
:1027E000D8152100A00B20002C813300912121005D
:1027F000940C200070B504460D461EF7D8F501462E
:102800000948062906D002782368A9188B4204D803
:10281000002070BD00788200F6E7581A2060012081
:1028200070BD0249087070473D5B2000DC15210037
:1028300008B50C480090FF2269464FF4BC700AF7B7
:102840003CF30948016821F40071016007484FF02A
:10285000000181604FF080020260C1604FF003010F
:102860008160FEE7FEE7FEE748813300009032001A
:1028700010B500F0B5FC0446022808D07BF79BF1A8
:102880005A2804D220467BF781F1022801D2012088
:1028900010BD002010BDA0F13201282903D84E49F7
:1028A000088001207047002070472DE9F04704465A
:1028B00002207BF780F1484F8046388850B90220CB
:1028C0007BF75BF10A2801D8462002E0142821D8C2
:1028D00050203880D4F8D800404DDFF8049101260C
:1028E0004FF00C0AC0B339880A39884503DBB4F8C5
:1028F000D40000282ED10027C4F8D870206B58B11E
:10290000806948B1EE60226BA18A506E9369002203
:1029100098471EE05A20DCE7D9F80010002091F813
:102920006B10C91C1BE02269D2F8882002EB8002E0
:102930001268A24211D1C0EBC002296F0AEB8200DB
:1029400008440268002A05D0EE6020694830002162
:102950009047EF60BDE8F08704E0401CC0B28142C0
:10296000E1D8F7E702207BF726F139888842F1D3D6
:10297000B4F8D4000028EDD0C4F8D860206B38B18A
:1029800083692BB1A18A406EBDE8F0470122184748
:10299000D9F80010002091F86B10C91C18E02269CA
:1029A000D2F8882002EB80021268A2420ED1C0EB5E
:1029B000C002296F0AEB820008440268002AC9D0CD
:1029C0002069BDE8F047483001211047401CC0B2E3
:1029D0008142E4D8BEE70000DE15210068932000A4
:1029E000345F20002DE9F04FDFF84CB287B00400CF
:1029F0004FF00008DBF80000DFF840A289461546DA
:102A000047464646059018D0DAF8A420AAB1A06C33
:102A10000090B4F84C00ADF8040094F84E008DF826
:102A2000060020798DF80700208CADF80800694673
:102A30000E2003959047012835D004F170000490D2
:102A40008DB184B1B9F1000F05D0B9F81400288018
:102A50004FF0010801E0FF2028800020E88029468F
:102A600004987BF74CF17649C86800281BD1B8F16F
:102A7000000F1BD094F88E00022802D0012803D04A
:102A800005E0B1F8860000E0488800280BD0E06D32
:102A9000002808D104987BF789F1002803D001466B
:102AA000204633F7B8F407B0BDE8F08FDBF800003C
:102AB00088460969C0EB001000EB400001EB800480
:102AC00052E094F88E00022802D0012803D005E0DD
:102AD000B8F8860001E0B8F80200E8B3D8F88C50E6
:102AE000C5B12869C06DA8B9B5F8D40090B105F199
:102AF000CC007BF75BF15FEA00090BD0284667F753
:102B0000F3F12946484666F720F42869494633F729
:102B100082F429E02068A0B1E06D90B92079042802
:102B20000FD104F170007BF741F128B10146204636
:102B300033F771F4012717E0204667F74EF20028BB
:102B4000F4D1DBF80000761C401CCBF800009AF8AA
:102B5000AD20824207D100E00AE00020CBF800005F
:102B6000D8F8104000E0B4349AF8AD00B042A8DCC8
:102B7000002F98D0059ADBF800005946824292D186
:102B8000401C08609AF8AD2082428CD10020CBF81E
:102B9000000088E72DE9F041294E80463169401A4E
:102BA000B421B0FBF1F0C7B200242AE004EB4405E5
:102BB000D6F89000691C415CB94220D1415DFF29E3
:102BC00017D0404667F761F118B10022232143F77F
:102BD00010F096F89420501EA0420ADDD6F890001E
:102BE000E91C121B0144521E284402EB420251F719
:102BF0004AF596F89400401E86F8940001E0641CA3
:102C0000E4B296F89400A042D0D8BDE8F08170B547
:102C10000C46050006D07AF72BF70C34A04201D3FE
:102C2000012070BD28467AF745F706A14FF6F770E8
:102C300009F748F1002070BDE0152100D8C0200040
:102C4000689320006C326361705F6C696E6B5F63C8
:102C5000686B5F706B745F73746172743A20647236
:102C60006F7070696E6720686369207061636B655F
:102C7000740000002DE9F84F054690F87C6090F84C
:102C80008E004FF0000A022801D185F87CA005F1E2
:102C900048000024DFF8A4814FF00409DFF8A0B158
:102CA000009033E0D5F8880000EB84010868A0B1FB
:102CB000EA6A904229D0C4EBC407D8F8702009EB27
:102CC00087073A44126802B3C1F800A065F750F7CD
:102CD000D8F870003844076810E0211D01208840B2
:102CE000304202D156EA04000FD1C4EBC402D8F836
:102CF000701009EB82000844076837B195F88E30F0
:102D0000B5F88C2000210098B847641CDBF800005F
:102D100090F86B00C01CA042C4DCBDE8F88F10B571
:102D200090F88E10022909D144490622803148309A
:102D30007BF7CAF0002801D14049C86710BD414B5C
:102D400010B5024693F8AE30A1F14000834210DD89
:102D50003A4BC0EB401404EB80105B6903EB80003E
:102D6000036833B112B10369934202D1828A8A4265
:102D700000D0002010BD2DE9F0410B46042115467E
:102D80008046022A04D0032D04D0012D04D004E093
:102D9000082102E00C2100E006210B2265F7C2F7B2
:102DA000020049D00020958202F11603022D0BD0BB
:102DB0000124032D11D0012D36D01C804046BDE8E2
:102DC000F041002133F7A9B323F8020B98F88E10D5
:102DD000022900D088201860F0E723F8020B0021B8
:102DE00018605860022018700420DFF850C0144F9B
:102DF0000FE0C1EBC106DCF8705000EB86063544ED
:102E00002D682DB11D780E1D04FA06F635431D7090
:102E1000491C3D6895F86B50ED1C8D42E9DC187833
:102E200000F08E001870C9E723F8020B064800680E
:102E3000008910381880C1E7BDE8F0816893200050
:102E4000345F2000D8C02000385F20002DE9F04713
:102E5000002506468946A8467BF72BF70746F46906
:102E60004AF2050007E06168814202D1E2684A4502
:102E700006D025462468002CF5D1B8F1000F14D0F7
:102E80002068BDB12860306AA04200D135624FF0A1
:102E9000FF3106F124007BF7F9F638467BF70DF792
:102EA0002046BDE8F047FFF615B13846BDE8F047CB
:102EB0007BF703B7F061E6E710B504467CF7C5F58C
:102EC00094F82100002806D021461248FFF7BEFFE3
:102ED000002084F8210010BD10B5040001D0606A04
:102EE00018B90D4910207CF7D8F17BF7E2F60022E3
:102EF00084F821207BF7E1F608498C4202D008498A
:102F00008C4201D1206900E0606B616ABDE810402D
:102F1000084700007CC020000402008100F6200069
:102F200030F62000F0B4DFF84CC000220225DCF8B7
:102F3000803018E013F81210B0F86860B14210D178
:102F40001146641E08E005EB410703EB41061F44F0
:102F5000491C3F88378089B28C42F4DCACF886404B
:102F600001E0521C92B2BCF886409442E2D8F0BC18
:102F70001EF7A4B30C94200070B5000A64F7A3F008
:102F8000044604202EF7EAF4054684B1022104F138
:102F90000D0065F7F1F450B1D0F8880000EB850022
:102FA0000068D0F8D800002800D08F2070BD87209E
:102FB00070BD70B50C46401EC0B2022101EB002668
:102FC00015463046FFF7D8FF002806D12A4621468D
:102FD0003046BDE870404CF7B2B670BD70B50546DE
:102FE00037F794F60446284624F767F7002C0ED0EE
:102FF00000280CD0D0F80D10C4F88A10B0F81100D9
:10300000A4F88E0014F8990F40F00200207070BDF3
:1030100070B505000C4604D1A06810B12068FFF718
:10302000DDFF214628467FF7C7F706461DB9A06891
:1030300008B123F7EDF6304670BD03490860AFF2E2
:103040002F004CF759B700009C6120002DE9F0419A
:103050000D4616461F460846CBF743F7040015D029
:10306000CCF764F22968C0F81110A988A0F81510EF
:10307000817909B9A1798171868007800221017265
:10308000BDE8F04100220421CBF70FB73046BDE880
:10309000F0412EF7E0B10B4808218176032101773A
:1030A0000A214177142181774FF4FA61018442F6B5
:1030B000E061418400218184AFF26F0140F8241C5B
:1030C00070470000086020002DE9FC410546D0F85B
:1030D00078010C4620B12846BDE8FC41CDF76BB71E
:1030E000A668A878B17888422AD10120C5F878016D
:1030F0006079CDF7FAF4C5F86C01207B85F885017D
:1031000005F1E4006C223146074651F7BCF2D5F8D0
:103110006C0100220E21CDF7F7F4A76028464DF789
:103120009BF501461020CDE90040D5F86C2102B195
:10313000521DE86E042323F793F6A660BDE8FC81D8
:1031400029202070002060706079CDF7CEF42179BD
:1031500002B02246BDE8F041CEF78AB72DE9FC4126
:103160000546B0F876000C4680070BD51920207074
:103170000020607002B02846BDE8F0410A460F21E9
:103180004DF7E4B4A16805F1E4000E466C22074651
:1031900051F779F2A76028464DF75EF501460C20FD
:1031A000CDE90040E86E0C23002223F759F6A66013
:1031B000C4E73EB5054637F7A9F504000DD1002157
:1031C0000091019102AA694628467FF72BF6012853
:1031D00003D1684637F7C9F6044620463EBD0000D5
:1031E00010B504460838017907487AF71DF4E1075D
:1031F00008D1002805D00169044A914202D190F813
:10320000220010BD002010BD28842000EFBEADDEDE
:103210002DE9F04138480025384ED0F8784612E0C4
:1032200004F10E000121074668F780F620B902215B
:10323000384668F77BF618B141F6A570BDE8F08115
:103240006D1C04F58A743068007AA842E8DC2A48CC
:1032500000252F46D0F878460FE0B4F86E0000063F
:1032600008D5A4F86E7084F89970682104F19A006A
:103270007CF79AF66D1C04F58A743068007AA842CF
:10328000EBDCBDE8F04128F7E6B032F76FB170B57E
:1032900004460D46164646F752F210B141F6A970A3
:1032A00070BD32462946204624F752F318B1A0F5E6
:1032B000F851A439F4D1104991F8D22381F8D023E0
:1032C00070BD53F745B410B50C0006D040B10221D3
:1032D00068F7F0F560B15D3003E041F6A87010BD0D
:1032E000074828B10168216040686060002010BD77
:1032F00041F6AA7010BDE6E738852000345F200053
:103300005688200010B50F4CD4F8940000280FD137
:10331000FEF769FA04F14404A18840F759F40B4917
:10332000094888600A494FF0FF3008600220207089
:1033300010BD084901200870AFF237000649C86087
:103340007047000020E220003909210008E3200036
:10335000BC15210000622000089A20000178FF2996
:1033600003D0082901D80F4A11704178FF2903D0F2
:10337000042901D80C4A11708178FF2903D014293F
:1033800001D80A4A1170C178FF2903D0142901D845
:10339000074A11800079FF2803D0102801D8054979
:1033A0000870704792142000E21B2000846D2000FA
:1033B000147520009014200070B50446234800784E
:1033C0008001D0F70AF40720FFF4D4FE204D10B19D
:1033D000296801B1884700F0BAFE6968002907D062
:1033E000042C01D9012000E00020BDE8704008470E
:1033F00070BD10B52921A0B1826892B1154A136839
:1034000043F480731360124BC2685A60027812B1A1
:10341000012A03D005E0D0F75EF401E0D0F71DF4F7
:103420000146084610BD10B503F79AF2352010BDCD
:1034300010B580F7D1F008B1002010BD00F01EFEDD
:1034400008B1012010BD022010BD0000386220002C
:10345000E41521004881330070B50E461449044636
:103460001248097B012916D04FF44E120021C2F8F0
:10347000A010016821F0020101600020E0F72EF7A2
:10348000054631462046E1F76BF004462846E0F752
:1034900025F720B270BD002070BD05480068704758
:1034A0000348406870470248806870474480330092
:1034B000146520002DE9F0410446806888461646D0
:1034C0001F4640070BD500212346104A0846CFF778
:1034D000C3F60F4918207BF7D7F6CFF72EF794B134
:1034E000B8F1000F0FD004F1300538462F7002F705
:1034F000A3F7024633464146204679F78CF66E60C4
:103500000020BDE8F0812920FBE70000B442510013
:103510000403008170B50546012000F01AFA52F745
:1035200054F57BF7C6F30446284609F71EF3054613
:1035300020467BF7C2F352F74AF5002000F009FA63
:10354000284670BD2DE9F04105460C00164602D014
:10355000B4F5FA7F02D90020BDE8F081012000F027
:10356000F8F952F732F57BF7A4F30746FF2332460A
:103570002146284609F7F1F1044638467BF79DF3CA
:1035800052F725F5002000F0E4F92046E4E7F0B515
:1035900001464FF4A80202EB41240120002147021A
:1035A0006318625C5D789E78ED43DB78EDB29542FE
:1035B00005D1B24203D1DB43DBB2934200D00020FD
:1035C000091DB942ECD3F0BD70B59CB041F772F063
:1035D00001280CD1FFF7DBFF2B4D4FF4007460B1D5
:1035E0002246294629487AF76FF400284AD01CB0B1
:1035F0000020BDE8704041F72BB00320FFF7C7FF64
:1036000001283FD140F727F5012834D140F70EF5C6
:10361000012830D1264622461D4C2946206851F704
:1036200032F029461B4D3246286851F72CF0002015
:103630000121CDE904010A90206808901648039002
:103640007CF73AF24FF47A71B0FBF1F02168134C39
:10365000C1F848012068401C2060684647F7C7F55C
:10366000286809902068401C2060684647F7C8F524
:10367000002040F7EDF740F717F51CB0BDE87040AB
:1036800040F712B51CB070BD000654000002540093
:10369000A8582000B058200001000080806320005E
:1036A000FEF648B208B593480090FF2269464FF4F1
:1036B000BC7009F702F4D0F722F108BD10B504463A
:1036C00014F74AF3204614F760F38B4C5520207012
:1036D000204614F79DF3002811D02078C82802D185
:1036E0006078642803D0BDE8104014F7DDB3834947
:1036F000EC2008708248017841F00101017010BD92
:103700008048C069A0F5A00070477F4908607047F5
:103710004FF4A270704770B504460025AEF721F74C
:103720006D1C44F8040B042DF8DB70BD2DE9F0414D
:103730000D46012614464FF4A27102F11807022D1E
:1037400005D0012D06D000263046BDE8F08104F1F9
:10375000280001E004F12C00804620467CF724F488
:10376000256038463C46FFF7D6FF8022214640467A
:10377000D8F72FF5E8E738B502464FF4A2746B4648
:1037800021464FF4485086F706F7BDF8001019B9E6
:10379000A04201D1012038BD002038BDF8B5044653
:1037A0005A48007808B907F7CAF66B4622464FF424
:1037B000A2714FF4485086F7FCF6C5B2BDF8000080
:1037C000E8B923684FF48C7104F11806012B05D079
:1037D000022B05D02820ADF8000010E02C3400E0CA
:1037E000283420467CF7E0F3802231462046D8F783
:1037F000F0F4BDF8000010B90DB10120F8BD0020B3
:10380000F8BD08B569464FF4485086F7DFF6BDF8B5
:10381000000008B1002008BD012008BD2DE9F84FC7
:103820009046DDE90A521E46914652F8083B0024B4
:10383000012B02D0022B33D040E099F8284009F147
:103840002C0A174688B925E02CB93B461A460121B7
:103850005046D8F714F6385D16F8011B484005F8B5
:10386000010B3855641C04F00F04B8F10108EBD2C9
:1038700013E02CB93B461A4601215046D8F7FFF514
:1038800016F8010B395D414005F8011B3855641CE1
:1038900004F00F04B8F10108EBD289F828400CE0DD
:1038A0000023136051609360D16009F12800334612
:1038B00041460095D6F7A5F100B901242046BDE8A0
:1038C000F88F486070474068704710B5012000F0DD
:1038D00040F852F77AF30E490120087010BD0C49E8
:1038E00010B50020087052F772F3BDE810400020B8
:1038F00000F02FB8FEE7FEE7F20B2000B4582000DE
:10390000CC5820002C0520004C5820007863200063
:103910007C05200010B517481EF7AAF016480021B4
:103920000160416010BD10B597F7D4F6124901202F
:10393000486010481EF7A5F0002010BD10B597F79D
:10394000EAF60D49002048600A481EF79AF0002068
:1039500010BD10B501284FF0000108D0AFF22300D0
:103960009AF7BAF4BDE8104002481EF731B1AFF241
:103970004900F5E72C712100EC1521002DE9F041FB
:10398000044676480F46154601781E4619B90121AE
:10399000017000F009FA4EB1042C0DD1384600F048
:1039A00024F948B141F6AE70BDE8F0810A2C03D18C
:1039B00015B9384600F0FEF90020F5E700280DD1D2
:1039C00067480068400609D44FF44810C16F21F0E1
:1039D0000201C167C16F41F00401C1677047AFF2D6
:1039E00023006049086470474FF44810C16F21F00C
:1039F0000201C167C16F41F00401C16770475A49B4
:103A00000028086000D1EFE7704770B557484FF0C5
:103A1000FF346508006820B18047411C01D00021B7
:103A200070BD2046294670BD4C49486070475048DB
:103A30000068002802D04F4901200870704700B587
:103A400087B01C2168467BF73EF14B48059000206B
:103A500003903C20ADF8100048480190484802907F
:103A60000022694607202DF73CF707B000BD10B5CE
:103A7000FFF7E5FFBDE810403BF761B338B50C46F2
:103A800040490860114620467EF714F608F7F8F121
:103A90003D4AAFF225013D4879F70EF63549012040
:103AA000087002F727F568B1FD20ADF8000094F822
:103AB00075008DF8020000236A4603214FF6264068
:103AC00020F7A4F5002038BD2DE9FC41064602F799
:103AD00011F5D0BBCEB33078052836D1B6F80370D7
:103AE0000024384629F7B8F06946384625F732F001
:103AF000DFF89C8024E0274804EB840101EB84116B
:103B0000D0F878067E2202EB810108440088B84292
:103B100014D121487AF797F10EE029680622684609
:103B20007AF7D2F128B929461B487AF75EF179F77E
:103B3000C1F728467AF78BF10500EED1641CE4B298
:103B4000D8F80000007AA042D5D81448016809B11D
:103B5000304688470320BDE8FC8100005C17210047
:103B600020043600089A20006C1721004C622000C7
:103B70003E5E2000876D200011950300D59603005E
:103B80002B9703006462200055F1030059222100A5
:103B9000345F200038852000389D200050622000CE
:103BA00030B5A3B004460D46882168467BF78BF0FC
:103BB00020680090A088ADF8040022486946D0F83B
:103BC000DC2513209047040008D0822128467CF78A
:103BD000EBF1FF20287023B0204630BD82220DF18A
:103BE0000601284650F74FF5F5E710B5A2B037F7B4
:103BF0008DF0040009D0694604F10E00FFF7D0FFF4
:103C000001009DF8000018D103E041F6AA7022B02F
:103C100010BDFF2811D0052801D008280DD194F837
:103C20005D0003280BD8074991F87913032906D8BA
:103C3000054A02EB8000085C08B10020E7E741F686
:103C4000AE70E4E738852000F742510070B50E46AB
:103C5000A2B00546144669463046FFF7A1FF0100B1
:103C60004FF000008DF884002078A278E37830D1FE
:103C70009DF8761004292CD1052818D295F87112D8
:103C8000052914D2120707D595F87522120703D516
:103C900000EB80005F4A03E05E4A00EB80001932CF
:103CA0001044085C18B19DF87700984211D930682B
:103CB000C5F81D00B088A5F821000A208DF8840001
:103CC00021AA1721284642F777F29DF8840022B0F6
:103CD00070BD0020FBE72DE9F0410E468046898843
:103CE00006F108004C4C0D1892B015F8017B84F8D1
:103CF000F472708884F8F502781E0E280AD22046E5
:103D000035F7C5F730B1012F11D0022F0FD00C2F8E
:103D100021D037E00A208DF80000D8F80010C4F850
:103D20001D10B8F80400A4F821006A4635E094F8A4
:103D3000230030B9012F04D140463AF7D1F084F87E
:103D40004B002A4641462046FFF780FF002828D135
:103D50003249087016E0B4F84C00C00512D5402175
:103D600068467AF7B0F70023684615F8011BC1547E
:103D70005B1C202BF9DB0146202204F59A707AF7B0
:103D8000A3F030B112B031464046BDE8F04135F7FE
:103D9000E3B30B208DF8400010AA1721204642F70C
:103DA0000BF212B0BDE8F081AFF2D5001C49096FEB
:103DB000086470477CB5184C05460146062204F19C
:103DC0001D007AF781F038B904F27124287A207145
:103DD000A8792070E879A07010480078002818D0E1
:103DE00010484FF000060660284636F78FF70400AB
:103DF0000FD000960622694604F1820001967AF7F8
:103E000063F0002805D12868C4F88200A888A4F8C7
:103E100086007CBD074351000C9620005D172100F1
:103E200068932000546220000249014808667047E8
:103E3000653F5000089A20002DE9F04714461F46C0
:103E400006460D4600F753F2002868D0724805EB8D
:103E5000061200EB8200610401680AD541F00801F6
:103E600001603A462946304600F754F224F4804473
:103E700002E021F00801016055EA06004FF44E17F8
:103E800006D1D7F8000224F4807400F48070044353
:103E900005EB06104FF44E1202EB8000210780461E
:103EA00043F6F01911D5012E01D10A2D12D024F0BC
:103EB0000801A0F80012D7F8D802800605D4012026
:103EC000A84081B2304600F7F5F14CF20F61012EA7
:103ED0000BD00CE0B7F868124CF2076001EA090158
:103EE00020400843A7F86802E5E70A2D19D0A8F892
:103EF0000042012E13D10A2D05D00B2D03D00C2D1D
:103F000001D00D2D0BD1600409D5200507D444F450
:103F100000600A2D0FD007EB8501A1F84002BDE833
:103F2000F087B7F8682204EA010002EA09021043A8
:103F3000A7F86802E7E7B7F86822084002EA090232
:103F40001043A7F86802EAE7334A40F28C4142F88E
:103F500020104FF44E1202EB80004FF4C061C0F805
:103F60000012704770B5064600200C4615461070CA
:103F7000272E00D970BD3046A7F794F4010002D077
:103F80003046A7F757F401205B2C3AD00BDC582CB5
:103F900037D003DC64B3572C22D132E0592C30D017
:103FA0005A2C1DD12DE04FF44811812C1BD004DC7C
:103FB0005C2C26D0802C13D10CE0822C05D0832CD5
:103FC0000ED13046FFF7C0FF0BE0D1F8182222F4E3
:103FD000005203E0D1F8182222F40042C1F818225E
:103FE0002870012070BDD1F8182222F48042F5E734
:103FF00021463046A7F75DF40749042041F8260022
:10400000EFE7573CE1B2304600F02AF9E9E7C9B2E0
:10401000C0B2A7F70FB400000084330038B5DBB29C
:10402000049C0094E0F7F7F038BD13484FF45911A1
:104030000088C2B24A60C0F34702CA60020A8A60BE
:10404000400A0861704710B5E0F792F00A49F02085
:10405000088010BD0849B0F5005F088002D341F622
:10406000FF720A800A2801D20A200880DDE7024890
:104070000088C0B2704700006417210002F7CEB478
:1040800002F7D0B202F7D4B202F7B0B22DE9F84F7E
:10409000041EDDE90DB8DDF830900D4616461F46CA
:1040A00002D04FF0010001E04FF0000082460BD13A
:1040B000204801218160026822F003020260026848
:1040C00042F002020260416002F71BF21A4814B18A
:1040D000012C09D013E00570A0F80160C0F803704E
:1040E000504686F7D9F20AE014490D7014490E8043
:1040F000C0F80770504686F7CFF286F7C5F5012D58
:104100000BD1B9F1000F12D0002308F00F014FEAD4
:1041100018104FF48C4200F715F1CDF800B0DDE92E
:104120000A124B46504686F70AF3BDE8F88F012382
:10413000EBE70000B4003200A46520009465200085
:10414000966520003349086033490860704770B5B0
:104150002020A7F79BF305462120A7F797F30446F5
:10416000282D01D1282C2BD0BBF76AF5CFF72DF4E1
:10417000CFF735F4282D07D020212846A7F75AF38A
:1041800020212846A7F795F3282C07D02121204687
:10419000A7F750F321212046A7F78BF31F480068AB
:1041A00008B1BBF793F51E48002102680846BBF72B
:1041B00006F518480068002802D0BDE87040C1E745
:1041C00070BD70B50C461749150003D1884201D95E
:1041D000002070BD024600210846BBF7F0F41249EA
:1041E000D1F81C0200F0FE00284344B1012C02D09B
:1041F000022C0AD107E0C0B240F0060005E000F052
:10420000F900801C01E000F0F900C1F81C02012057
:1042100070BD0000681721002C223500B864200012
:10422000C4642000689D29000020350038B5049C36
:1042300024B100240094BDF7E9F338BD0124F9E767
:10424000BDF7B7B3BDF758B4BDF764B4014601205C
:104250008840BDF771B3014601208840BDF72AB3FD
:104260000F4A02EB8000026822F47F62026002685B
:1042700040F2173303EB01110A430260704710B597
:1042800064290BD8B0FBF2F04FF6FF72141A4843C2
:104290006421B0FBF1F01C60101A586010BD0000E2
:1042A000008433000349012008607047014800681A
:1042B000704700006C17210010B500F10904B0F838
:1042C000090000210DF76BF240F6B8307BF7E6F1FC
:1042D000D4F803004FF47A71B0FBF1F00022BDE88E
:1042E0001040282102F73CB3002008602648042B28
:1042F0003CD0082B40D03F2B40D1B2F5EC7F1CD0F6
:10430000A2F58073C93B03D1836B0B60C36B4B6019
:10431000102A16D0B2F5EE7F17D0162A19D0262A09
:104320001BD0A2F58073D93B03D1836A0B60C36AAB
:104330004B60B2F5ED7F15D020E0026C0A60406C56
:104340000EE0826C0A60C06C0AE002690A60406993
:1043500006E082690A60C06902E0026A0A60406A97
:1043600048600BE0026B0A60406BF9E7022A05D156
:1043700002680A604068F3E7262A01D0086870479F
:1043800082680A60C068EBE7701721000121517153
:1043900005215170007B9071704710B590F90D1098
:1043A0001446007B04F018FCA0710020607110BD61
:1043B0002DE9FC41144600250646ADF8045000F1F5
:1043C0000902C07A0F46072801D0172810D1507A69
:1043D00070B901A900914FF440700623D21C00214E
:1043E00000F06EF938B12246394630469BF7E7F2C5
:1043F0006571BDE8FC8111206071FAE72DE9F0419B
:10440000AA4D00F109070026B5F86400B7F80310BB
:104410001446884202D15671BDE8F081002071F740
:1044200001F308B10C200DE0B7F80300B0FA80F1F9
:10443000C1F1200290FAA0F1B1FA81F1491C0729DB
:1044400002D212206071E7E7A5F8640085F84B21DD
:1044500085F84A116671DFE72DE9F04100F10905A1
:1044600017468089052170F7EBF70646B5F803007B
:1044700078F721F1804695F90540AEF7DAF3034667
:104480008B4800218EB9B8F1000F0ED1B5F803109A
:10449000FD2905D0FE2905D0FF2905D0022013E013
:1044A000032102E0012100E00221804AD27C1207B0
:1044B00001D5112008E090F90020A24203DB90F919
:1044C0000E20A24202DD30207871A5E7794D2A78CE
:1044D00042B16A78AF7800EB42021770EF785770FC
:1044E000002204E001222A70FAE7521CD2B200EB4B
:1044F000420797F90070A74201DB9A42F5D30AB14F
:10450000521ED2B200EB42006A7090F90030AB70DC
:1045100090F801C085F803C0032914D0C578E71AC4
:10452000A5EB0C057D4390F902700470FB1A95FB16
:10453000F3F3634443708EB186F8A0203068BDE881
:10454000F041AEF74FB35C4C1846A376AEF74DF58D
:104550005A49096860F30F2161825DE74046BDE872
:10456000F04178F73FB310B501004FF0000007D0DD
:10457000012904D1092102207BF7C6F3C0B210BD86
:104580000821F8E710B50024801E082821D2DFE8B2
:1045900000F004060B0D0F111315022000E003209C
:1045A0007BF7D7F2C4B214E00420F9E70520F7E75F
:1045B0000620F5E70720F3E70820F1E709207BF75D
:1045C000E2F24FF448114FF4E040086009207BF715
:1045D000DAF2204610BD10B54FF4481420680220CE
:1045E000FFF7D0FF00280ED0206845F6FF71084085
:1045F0002060206840F4006020600020FFF7B3FFD7
:10460000002800D0012010BD70B500F10904407BE6
:104610000026154609280BD0FFF7DDFFA0B1207951
:10462000FFF7B0FF80B1E078FFF79DFF50B90BE0D6
:104630000120FFF798FF002805D02079FFF7A2FF9F
:10464000002800D06E7170BD1220687170BD70B509
:104650004FF44816144630683168C0F30330C1F394
:10466000031508B10B2001E07BF7D7F3A071306888
:10467000B0F5E04F07D0072D15D2DFE805F0121096
:104680000E0C0A08060009200CE002200AE00320B4
:1046900008E0042006E0052004E0062002E00720F0
:1046A00000E00820E0710020607170BD4010200023
:1046B0006C0B2000C0172100E0142000048331009F
:1046C0002DE9F04F102585B00024064691469B4603
:1046D000A0460DF10C0A01AB02AA00212846CDF834
:1046E00000A043F72CF50746029810B90199FE295E
:1046F00069D0019943F79DF4B0B10199F0B28842B5
:1047000067D10298B0EB162F63D103994FF00108DF
:10471000594513D9314918207AF7B6F54FF40031CD
:104720001220FDF6DEF031E02D4918207AF7ACF5C5
:104730004FF480311220FDF6D4F0CCE7042304AA14
:104740000021284843F7C4F2002004AAC300115CEA
:1047500099402143401C0C460428F7D304F0030081
:10476000C0F10400084410308246002106F79BF691
:1047700004000BD002464FF4A006534600213046F9
:1047800043F7A6F2E8190146821D0BE0002005B0B0
:10479000BDE8F08F635CFF2B17D10D1A19F80530B7
:1047A0006354491C8A42F5D84FF40071304643F7F0
:1047B000A4F750B1534622460021304643F79FF3F9
:1047C000204606F79FF34046E1E7204606F79AF3B6
:1047D000DCE70399E81945187DE70000040500812E
:1047E000040400810C00500050490860704710B567
:1047F00040B1FFF7F9FF4D4810210068BDE81040B7
:104800007BF7D2B34A48F4E7484800687047474806
:10481000006808B1008870474FF0FF307047434987
:104820000968002900D008807047404800680028C7
:1048300000D0001D704710B506223C4B0021521ECF
:104840001C680C44491C247984540629F7D310BDF4
:104850003648006808B1C07870474FF0FF307047A5
:1048600032490968002900D0C87070472F48006895
:1048700008B1408970474FF0FF3070472B490968F5
:10488000002900D0488170472848006808B1808915
:1048900070474FF0FF30704724490968002900D065
:1048A000888170472148006808B1C08970474FF07F
:1048B000FF3070471D490968002900D0C881704742
:1048C0001A480068002802D0807800F00100704784
:1048D00016480068002803D0817841F001018170FA
:1048E000704712480068002803D0817821F0010148
:1048F000817070470D48006818B1807800F00200A0
:1049000070474FF0FF30704708480068002803D018
:10491000817841F0020181707047044800680028E6
:1049200003D0817821F0020181707047C417210003
:1049300054712100002801D101490870704700001E
:10494000D5F7200070B5554E0024307810B17AF7B5
:10495000DDF604465248007838B95248524900689A
:1049600008605248524900680860BDF701F1514D96
:1049700040B1286830B1C07B10B177F7BDF108B104
:10498000686820B195F83900032813D015E028682D
:104990000168896901B18847286886F7CEF22868DE
:1049A00075F77BF458B12868BDF721F1BDF732F1F6
:1049B00038B904E077F7D4F268B173F761F173F7AF
:1049C00013F0307828B17AF7A1F6011B012046F7E1
:1049D0006EF4012070BD73F754F373F751F10120A9
:1049E00073F7E6F1EBE770B52C4E0024307810B188
:1049F0007AF78CF604462A48007838B92E482A49B6
:104A0000006808602D482A4900680860BDF7B0F0CA
:104A1000284D48B1286838B1C07B012802D077F70B
:104A20006BF108B1686820B195F83900032813D0FC
:104A300015E028680168C96901B18847286886F7C8
:104A4000AEF2286875F729F458B12868BDF7CFF0A1
:104A5000BDF7E0F038B904E077F782F268B173F798
:104A6000D5F072F7C1F7307828B17AF74FF6011B0D
:104A7000022046F71CF4012070BD73F702F373F7B0
:104A8000C5F0012073F794F1EBE7AFF247110C4842
:104A90000160AFF2AD018160704700006D1E200023
:104AA00078742000C8F7200050014100D0F72000A2
:104AB000E0044100100E2000C4F72000CCF72000D5
:104AC0005C80200010B50446042811D372F743F02F
:104AD0000DF5A6FB052C01D01CF7B7F01CF789F0EB
:104AE0001CF707F121F7D4F1BDE8104071F729B6A2
:104AF00010BD0000044903484860054903480860A8
:104B00007047000031312100E85D2000243221008F
:104B10009456200030B500F10904002589B0B0F8A2
:104B2000090029460CF781F6E01CFDF728FA30B1A0
:104B300008236A46E11C0848B6F79AF205E0FF220E
:104B40002021684696F771F41225694628469FF79A
:104B50007BF409B030BD0000ACE120002DE9F0414C
:104B60000D4B164680460F469847338884B2A342C1
:104B700004D2002434802046BDE8F08185B2074B82
:104B800038682A464146984733881B1B33803B6868
:104B90002B443B60EFE700BFD35A0500316D0000A6
:104BA0002DE9F047089F1E461B680A2900F2A680DF
:104BB000DFE801F0060628282D2D2117241C3200DD
:104BC0004FF00009CA46022400280CBF0125032526
:104BD000B7F800C02544654523DD00203880BDE8D6
:104BE000F087147892464FF00009EDE7148891465B
:104BF0004FF0000AE8E714786400F3E714886400D3
:104C0000A4B2F4E74FF00009CA460424DCE74FF0F1
:104C10000009CA460824D7E74FF00009CA460C2409
:104C2000D2E74FF02C0C83F800C040B903F1010823
:104C30000639032941D8DFE801F021082017587010
:104C40003D2003F103089870F2E751462C4B11F810
:104C5000012B404698479AF8001041443B88A8B27F
:104C60001B1A3B803160BAE74946254B31F8022BCD
:104C700040469847B9F80010EFE70132013241464B
:104C8000002083B29C42E9D992F800C04FEA1C137D
:104C9000BCF19F0F94BF3033373308F8003012F85F
:104CA000013B03F00F03092B01F1020194BF3033E4
:104CB000373301F8013C0230E3E702EB5402013ADA
:104CC0004146002083B29C42C8D992F800C04FEA06
:104CD0001C13BCF19F0F94BF3033373308F80030FA
:104CE00012F8013903F00F03092B01F1020194BFFF
:104CF0003033373301F8013C0230E3E700206EE740
:104D0000316D00000A880368022A02D8002008805A
:104D100070470D221A700A225A7000229A700A886F
:104D20000333033A0A800360032070472DE9F04FF4
:104D30001F468BB00023CDE90633CDE9083390F848
:104D40000C38ADF80E10012B04461646059200F102
:104D500004084DD1D0F80F38DFF838B14E485D79EE
:104D60000DF10E094A4605A9D847D4F80F184B4B48
:104D70008A7906A807319847237803F03003102B6F
:104D800005F00F0A4FEA151507D1D4F80F389B79B3
:104D900028336B44242203F8102C4A4605A906A8A0
:104DA000D847CDF8009005AB42460221DFF8F080ED
:104DB000DFF8F0B00020C047D4F80F3804F106083F
:104DC000DC1D9B794FF000091C445FFA89F39A457A
:104DD00008D804EB450BDFF8C8A0DFF8CC900DF144
:104DE0000E052EE02046D84709F101090446ECE7FC
:104DF000022B49D1D0F80F38DFF898902B48DD7896
:104E00000DF10E0205A9C847D4F80F18234B0A79F3
:104E100006A8053198470DF10E0205A906A8C84756
:104E2000D4F80F385C1D1B791C44D2E761782078D8
:104E3000009505AB4246D047637819F80330023439
:104E400098445C45F2D11A4B294605A89847F0B121
:104E50000599134C0095891B89B2A1F10A03ADF89D
:104E60001230BDF80E30013904333980ADF80E3000
:104E7000023605AB0DF11202022100200596A04773
:104E800000200BB0BDE8F08F40F20120F9E740F2BE
:104E90000310F6E75D4B500039435100316D0000BF
:104EA000A14B5000FD535000D63C510042435100ED
:104EB000054D50002DE9F04F89B043780193D0F8AB
:104EC0000F4807780546002C40F0F98007F0C00332
:104ED000C02B40F0D780012380F80C38A14EA248A7
:104EE000698802889142E3B205D1A5F80D38C5F86A
:104EF0000F08002605E00134B047852CF0D14FF4AF
:104F000001769A4B9A4A93F83440D2F8ED2914F07E
:104F1000030406D0022C00F0D580012C00F0D880CC
:104F2000012493F83B10029193F83C10039193F8FD
:104F30003D10049193F83E1093F836B093F837E0A3
:104F400093F838A093F839C093F83A9093F84080DA
:104F5000059193F83F1093F8353003EB0B239BB288
:104F6000B3EB124F4FEA124000F0B6800EEB0A2E60
:104F70001FFA8EFE704500F0AF800CEB092C1FFA73
:104F80008CFC604500F0A880DDE9023C03EB0C23BB
:104F90009BB2984200F0A080DDE9043C03EB0C23B7
:104FA0009BB2984200F0988001EB082189B28842B8
:104FB00008BF00246F4BDFF8C0819A4208BF00246D
:104FC0006E4A98F80432128803F0020112B10029E7
:104FD00008BF012498F81D2612F0010218BF1446DC
:104FE00098F8702512F0010211D0604890F82BC299
:104FF0001CF0010F03D195F80C0801286ED01CF0AD
:10500000020F04D195F80C08022808BF144698F83E
:105010006425002918BF002412F0200F18BF0124B6
:1050200013F001035CD0019B3F0207F440771F435C
:105030000022992307F1040C91B28C4515FA82F0F5
:1050400002F1010200F28680037098F87035DA07E9
:105050000ED5B8F874355BB949484A4BC8F87C0599
:105060007A1D2946A8F874259847474B0120984790
:10507000002C62D13D4B93F82B30DB065DD5791DBA
:10508000284658E0802B69D102206E883F4B85F876
:105090000C08B3F800C0DA78B445E1B204D1A5F841
:1050A0000D18C5F80F3824E719790134053110FBC4
:1050B0000212292C1344ECD140F2052621E740F2DC
:1050C00001261EE702F0C004803C18BF012428E737
:1050D00002F0C004C03CF8E700246BE7044696E702
:1050E000DFF89C902A4EADF81E304A460DF11E03A3
:1050F0004FF496712846B0470646F0B998F87035D7
:10510000BDF81E70D80709D5B8F8743533B91E4BF1
:10511000A8F874750120C8F87C9598471448C319FD
:10512000002283F8AD2044B9104B93F82B30D906F8
:1051300003D53946AD30174B9847174B284698474B
:105140001648174B40F6130200219847304609B025
:10515000BDE8F08F695C0B44DBB26DE740F20126DD
:10516000F4E700BF2D545000333151001E362100AA
:105170007C392100801302017C49210090652100C7
:10518000293A2100316D00002DA55000EC2E510070
:105190002D4D5000A192500079E350006943210049
:1051A000416D0000027810B54478130203F4407397
:1051B00021440B449BB2B3F5006F3FBF22F00702BE
:1051C00042EA13224370027010BD0000F7B5DDE91A
:1051D00008470A9E0C334FF0010C944580F0A780DD
:1051E0001D4613F80CEB86450AD10A2900F2988077
:1051F000DFE801F099994B4B3D3D2C1A1C0B9B00AD
:105200000CF1010C5FFA8CFCE7E72B891B0A637039
:1052100002202B8923702A89474B696820449847CC
:105220002B893B8000202EE00120F2E72989686865
:10523000424D224601314908002322F8021BA847AB
:105240004FF6FF7398421CD02388EAE7298922464B
:105250000131C1F3470102F8011B00236868374D93
:10526000A8474FF6FF7398420BD02378D9E7042163
:10527000012322466868314CA0474FF6FF739842DD
:10528000D0D140F20E2003B0F0BD0221F0E70023A0
:10529000ADF806300A2943D8DFE801F02E2E303071
:1052A0003232121206062C00234B022231460DF137
:1052B00006009847BDF806300233ADF806300AE024
:1052C0001F4B9E4202D020339E4210D1F37F04F840
:1052D000013BADF80630BDF80620002AA2D0194BDC
:1052E0009E420FD1184B0021204698479AE7337809
:1052F0000133E2E70623E0E70123DEE70223DCE7F0
:105300000423DAE734339E4202BF0C2304F8013B46
:10531000ADF80630BDF80620074B31462046E4E7DD
:1053200040F20220AFE70121A2E70621A0E7002E0C
:10533000ADD140F20D20A6E7316D000001745000A0
:10534000CC3621001F362100416D00002DE9F043CD
:1053500007461468DFF8A0E00D460020A7F1020917
:1053600041F258286E1ABE4201DB146008E095F83D
:1053700000C0BCF1250F36D1B14503DC00201880F8
:10538000BDE8F0836E7826F020064D2E29D1AE7848
:10539000313E052E25D81E88012EEFD9023E1E80F3
:1053A000AE78C6F136067644023016F808C04FEAE9
:1053B0001C16BCF19F0FA44694BF303637360CF84C
:1053C000026BAE78C6F13606764480B216F80860F5
:1053D00006F00F06092E94BF303637366670023558
:1053E00064460135BEE704F801CB1E880130013E5A
:1053F00080B21E80F5E700BF7C39210090F90030B3
:105400000278002BBFBF43780749CB5C0433B4BF9D
:10541000DBB20423920604D5427803498A5C134424
:10542000DBB21844704700BFD63C5100F8B5437951
:10543000084F03F00F061C09837907331844002531
:10544000EBB29E4202D800EB4400F8BDB8470135EC
:10545000F6E700BFFD5350002DE9F04F89B0144628
:105460000F46049040F613020021464D464EDFF8E9
:105470001CA1DFF81C812046A8476FF03F02227074
:10548000002262704FF0FF32A270E27079683A89B0
:1054900011444FF0000911F8011C242901BF02F149
:1054A000FF323A81D0222270F51DB279786896F8E1
:1054B00005B02946D047002856D1B279B7F808C0C0
:1054C000944551D184F80C08A4F80D98C4F80F68DD
:1054D0001544F278DFF8BC9002F03F020BF00F0A9F
:1054E0006270DFF8B4B03288628004F104080646C6
:1054F0000246F1B2514500D21AB1104609B0BDE8DA
:10550000F08FADF81E20698841B1C1F30B02090B81
:1055100018BF20794A4418BF01FB00222878697817
:1055200002920DF11E02CDE90082DFF870C0049AEC
:105530003B4600F05F00E04761780590BDF81E0033
:105540000144207889B220F00700617040EA1121FF
:10555000217069781BF80110284688441049884753
:105560000136059A0546C4E73046C04709F10109EE
:105570005FFA89F9B9F1850F064695D140F2032209
:10558000BBE700BF416D0000333151004D77500043
:105590002D5450001E362100D63C5100CD515000F4
:1055A000FD5350002DE9F04FAB4BA5B08346984713
:1055B0001FFA80FABAF1AC0F00F23F8100258DF896
:1055C0000C50ADF81450CDF810B05F46A846A9466F
:1055D0002E462C463878002800F0F080BCB19F4859
:1055E00000F580530022C3F8FC216FF07F0380F8A0
:1055F000ED39022380F8EE3980F8EF3980F8F03980
:10560000A0F8F149964B00F6ED1098470BE1002DFC
:1056100055D058283CD030D84E2800F014811BD8E3
:10562000252801D02C281AD17B1EA3EB0B02AAEB54
:10563000020207F8010C79190193521B894B384675
:105640009847019B0028AAEB050508BF4FF4817419
:105650001FFA85FA1F4604E0522800F0F68040F257
:105660000F2424AA0C2303FB0623002533F87C2CEB
:10567000013223F87C2C0137ACE76E2800F0E38080
:1056800001D85C28CFE7722800F0DF807828E6D1C7
:1056900078780028E3D0BB78002BE0D00193724BE0
:1056A0009847019B054618466F4B9847FF2DD6D06B
:1056B000FF28D4D040EA0510C0B20325B4E725285E
:1056C00007F1010322D138462A4610F8013F1FFA9C
:1056D00082FC8BB9BCF1020F68D17B7803F0DF0349
:1056E0004D2B63D124AA0C2303FB062333F87C2C17
:1056F000013223F87C2CBEE723F02001413919291F
:1057000002D9303B092BE5D80132DEE75C2850D0C6
:105710002C2810D1092E3D704DD80136F6B20C223E
:1057200024A902FB0612A94602F8845C42F8803CD8
:1057300022F87C5C9FE7202840F08980B9F1000FB7
:1057400022D124AA0C2303FB062353F8802C013218
:1057500043F8802C8FE7002E7BD0B9F1010F78D170
:10576000019317F8010C414B984724AB0C2202FB24
:105770000632019B42F8803C002302F8840C22F898
:105780007C3C4FF0020976E708F101081FFA88F81F
:1057900024AA0C2303FB062309F1010933F87C2C0E
:1057A000013223F87C2C1FFA89F964E74FF4047462
:1057B00061E701255FE740F20B245CE7002C7FF4F2
:1057C0000EAF002D3CD1741CE4B2B8F1000F10D024
:1057D00024AA0C2303FB062333F87C2C53F8801CEB
:1057E000A2EB08028D5433F87C2CA2EB080223F8BC
:1057F0007C2CDFF878800023BDF81420DDB29542C0
:1058000003F1010713D32046194A1A4B03A99847FD
:10581000044600287FF4E3AE1548174B984704462A
:1058200000287FF4DCAE204625B0BDE8F08F049E52
:10583000705DC0473B467055DEE740F20A24CEE675
:1058400040F20F24CBE60A20EEE60D20ECE63D28E0
:1058500081D04FF000089BE7D35A05007C39210026
:10586000B54E5000396D0000D7735000C973500019
:10587000563B210059545000956350002DE9F041EA
:10588000824C94F8043213F0010205466AD100F00C
:10589000C001C02943D07E494B7B002B77D10D2D11
:1058A0007C4EB4F8122201D00A2D77D1002A33D0D1
:1058B00043B191F82B30DA0704D50D20764DA84777
:1058C0000A20A847B4F8122272497448744F002580
:1058D000B5540132B8473378232B1AD0262B10D178
:1058E000B4F812226F49013A92B2481EA4F812226B
:1058F000B847B4F81202FF28355402D865496A4BFC
:1059000098476A4B63489847B4F812126348684B4B
:1059100098470023A4F812320020BDE8F08143F03C
:10592000010384F80432A4F8122294F80432D9074F
:10593000B1D5B4F81222002A50D105F0C003C02B13
:10594000EAD1D4F800321D70B4F812320133A4F851
:105950001232673D574B84F8105201214FF47A7090
:105960009847D9E7B4F81222002AE2D1232809D0B7
:10597000A0F12E02012A05D940F02002732A01D09D
:10598000672AD6D123F0010384F80432CDE794F8D6
:10599000703503F00103C3F1010380E7082D01D046
:1059A0007F2D0ED1002AB7D0013AA4F81222002B85
:1059B000B2D091F82B30DB07AED5374B284698474D
:1059C000AAE7AB2AA8D87E2DA6D8B5540132A4F8F0
:1059D0001222002BA0D0102D9ED9EAE7012AD4F87C
:1059E00000120CD10B781B0203F4E063681D034422
:1059F000B3F59A7F88BF4FF49A73A4F814328D548C
:105A0000B4F81232B4F81422224E01339BB29A42F7
:105A1000A4F8123234D1284B0120984794F8103260
:105A2000AB422AD1B6F8DC812448254F00250288F4
:105A30004245EBB21AD1A6F8E739C6F8E909214B7D
:105A40002148984700283FF464AF6FF07F0386F841
:105A5000ED39022386F8EE3986F8EF3986F8F03909
:105A6000A6F8F109194B1A48984752E70135B8478B
:105A7000852DDCD140F20320E7E740F20920E4E77E
:105A800094F810321D4484F8105245E77C492100F7
:105A90001E3621007C392100D3390D004E32210001
:105AA000316D00007D392100E1675000A55550009F
:105AB0001D675000456E5000C16E500033315100DB
:105AC0002D54500095635000563B2100B54E5000B8
:105AD000694321002DE9F0410846624F0E0901F0AB
:105AE0000F04B84710F0FF051CBF0125A5405E4B11
:105AF000304618BFADB298475EB90D2C40F0828099
:105B00005A4C94F81D36180705D523F0080384F87D
:105B10001D36BDE8F081564BDFF858811888564F86
:105B2000564E05F4005580B38DB394F81E3623F01D
:105B3000020384F81E36524B9847012244F20D416D
:105B40000D20C04794F81E3623F0010384F81E365A
:105B500094F8653503F0DF0384F8653594F866350D
:105B600043F0200384F8663594F8643503F0DF03CE
:105B700084F8643597F8033213B9202384F8D232BD
:105B8000B4F8683213F0080F2EE0002DD5D10022B2
:105B900044F20D210D20C04794F81E3694F8662576
:105BA00043F0010384F81E3694F8653543F0200372
:105BB00084F8653542F0200384F8663594F864353E
:105BC00043F0200384F8643597F8033213B91023A7
:105BD00084F8D23294F86435990706D193070ED031
:105BE00094F8653513F0030F09D001210846B0473A
:105BF00094F8663543F0200384F8663589E701217F
:105C00000020F4E70C2C84D11E4B2046984710B19D
:105C10001D4B204698470C20B84701287FF479AFE8
:105C2000124C94F84B32012B7FF673AF174B984709
:105C300000283FF46EAF164B9847B4F86832154A07
:105C4000154843F08003A4F86832002384F86632D4
:105C5000136843F004031360BDE8F0410F4B1421B7
:105C6000184700BF43330800D14400007C4921009D
:105C700090652100713208001E36210075BD50006C
:105C800095C15000613308007533080089A10800F0
:105C9000B1B450004C522100145221007B6400002A
:105CA00070B5524C524D94F81E360A46002847D023
:105CB0000B43012984F81E362CD1002244F20D2119
:105CC0000D204C4EB0470D20A847C2B2012A7AD110
:105CD00044F20D410D20B047474B93F8033213B9FE
:105CE000102384F8D23294F864359A0708D194F8D6
:105CF00066359B0744D094F8653513F0030F3FD009
:105D0000012108463D4B984794F8663543F020033F
:105D100084F8663594F81E2694F81D36384E92B3F2
:105D200043F008030D20002184F81D36B0470D20F4
:105D3000A847A0B3012133460D20BDE870401847A5
:105D400023EA0103012984F81E36E3D144F20D4110
:105D50000D20284EB0470D20A84710F0FF021FD19C
:105D600044F20D210D20B047234B93F8033213B9B1
:105D7000202384F8D232B4F8683213F0080FBEE75B
:105D800001210020BEE723F0080301210D2084F843
:105D90001D36B0470D20A84701460028CBD070BD66
:105DA00094F8653503F0DF0384F8653594F86635BB
:105DB00043F0200384F8663594F8643503F0DF037C
:105DC00084F86435D0E794F8653543F0200384F80F
:105DD000653594F8663543F0200384F8663594F809
:105DE000643543F0200384F8643575E77C4921006D
:105DF00043330800713208001E36210075BD500083
:105E0000A333080010B5174C174B84F8F119084656
:105E1000984704F58052154B84F8F2095B6AD2F872
:105E20001C12134ADB43B3FBF2F20A44C4F8F32911
:105E30004FF47A72B3FBF2F3A4F8F7396FF07F03F3
:105E400084F8ED39082384F8EE39092384F8EF3912
:105E5000012384F8F03904F6ED10064BBDE810403C
:105E6000184700BF7C3921004333080000A03200EE
:105E700040420F00B54E500000B5C1B06A46094B14
:105E8000FF2140F21B2098470749084B042268462F
:105E90009847074B6A46FF2140F21B20984741B0C4
:105EA0005DF804FBD97850001A362100316D0000EE
:105EB000ED7850002DE9F04FADF5037DCDE90001FF
:105EC000DFF880A0204FFF21904640F21B2002AA5D
:105ED000D047FB2203A902A8B8479DF808504FF00D
:105EE0000009FB2440F21B2640F21D2B009B994524
:105EF0000BD12A460DF109014046B847019B01200C
:105F00001D800DF5037DBDE8F08F691C641A02AB9E
:105F1000224619441846A4B2B847FE2C9DF80850F2
:105F20000CD85E450AD8013604F10803B6B20DEB71
:105F30000302FF213046D047FF34A4B209F1010922
:105F4000D4E700BFD9785000316D0000F0B5854C22
:105F5000854BADF5017D984794F84932012B01D16D
:105F6000824B984794F82A3393B1013B84F82A3343
:105F700094F829337E4803F2C64300EB83007D4B3F
:105F8000984794F82933013303F0030384F8293345
:105F900094F819323BB194F81932013BDBB284F822
:105FA0001932754B9847B4F84C329F071ED5734D84
:105FB000734BA868C17F9847E868724BC17F9847C8
:105FC000B4F86832DE070BD56F4B052114209847D3
:105FD000B4F868326FEA43436FEA5343A4F8683277
:105FE000B4F84C3223F00203A4F84C32674F97F810
:105FF0004132DD0742BF664B1B88C4F8083294F873
:10600000D232D80709D594F8D72203F0FE0384F8DA
:10601000D23212B1002384F8D73294F8D232590721
:106020000BD55C4BB4F8D41218885B4B984794F8A6
:10603000D23223F0040384F8D232584B584E594DD3
:10604000984794F84C05B047574B98470020A8470D
:1060500094F84C05B047554B9847554B002098474E
:10606000D4F80832FBB1534E308800284CD094F855
:1060700004329A0748D497F84232DB0713D54E4BC7
:10608000984780B1D4F808224AB14C4B91B2684687
:106090009847D4F808321B1A0246C4F808323088F0
:1060A000474B69469847474B1B78DBB2202BC4F817
:1060B0000C3210D894F818326BB183F0010384F8D5
:1060C0001832B4F86832D90605D594F864355A0701
:1060D00001D50120A847B4F84C325B0711D5D4F89C
:1060E0000C3273B9384BD3F8243203F00C03082B6D
:1060F00007D1364B9847B4F84C3223F00403A4F888
:106100004C320DF5017DF0BD94F864359F0617D52E
:106110002F4B1B68002BC6D194F864359E07C2D064
:106120000220A847D4F80832002BBCD0294A2A48BC
:10613000136843F4807313600521284B9847B2E736
:1061400094F87035D807AED4254F264E0020B847B6
:10615000B047D4F80832013BC4F80832002BF5D11F
:10616000A1E700BF7C49210003390D00F9BE5000B2
:106170007C39210011045100416F50005C0A21005C
:10618000C181500025825000456E50000834210026
:10619000806521008C5B21000D2A0D00A1B9500003
:1061A000C1A5500085AC50008DAB50000DA450002F
:1061B0002DA55000906521001DC2500099935000FC
:1061C000CDC15000866521000020350019BE500069
:1061D000105221004C522100145221007B64000017
:1061E000459350007D58500070B500220E4D014679
:1061F00013464FF6FF76D4B235F81400B04202D100
:106200004EF6EE6070BD35F8144004F47F44B4F5EA
:106210007F4F04D153FA80F39BB20132EBE78B42FC
:10622000F0D00133F8E700BFEC3C51002DE9F04F0E
:10623000214BDFF888B0DFF888A0A0EB0309FF2628
:10624000B9FBF6F294B2C2EB0222A9EB020989EA89
:10625000060504F50073C3B08D429BB2A8BF0D467E
:106260000746884602AA314618460193D84709F1E5
:1062700008032A4639460DEB0300D047019BDFF89F
:106280004490184602AA3146C847ABB243450FD2E4
:1062900004F20124A4B202AA31462046D847A8EB52
:1062A0000502791902A8D04702AA31462046C847FC
:1062B00043B0BDE8F08F00BF1E362100D9785000F2
:1062C000316D0000ED7850002DE9F0471D461A4B66
:1062D0009842C0B00F46144626D1FF23DFF85CA0D9
:1062E000B2FBF3F3DFF858901C445FFA83F804F034
:1062F000FF0415B940B0BDE8F087C4F1FF06AE4217
:10630000A8BF2E466A46FF214046D04708F1010843
:1063100032460DEB040138463744AE1BC847B5B2D0
:106320005FFA88F80024E4E7054B01192A4638464D
:1063300040B0BDE8F047184707342100D978500035
:10634000316D000070B5104C104B94F81622104DB2
:106350001A70FF2104F216224FF40070A84704F2CD
:106360001532FF2140F20120A84704F21442FF2118
:1063700040F20220A84704F213522B464E21BDE8FA
:10638000704040F2032018470834210007342100F0
:10639000ED78500003782DE9F04F1B0245788F4EC1
:1063A00003F4E0631D438E4B1B78992B85B00446A4
:1063B00013D08C4B8C4F984796F8701206F51C70D2
:1063C0000131B84796F8C01406F598600131B84716
:1063D000864B9847864B0120984722788049854B09
:1063E00002F03002102A08BF0B46C6F86435824B13
:1063F00062F03F0283F8ED29D4F80F28117901F0FB
:106400003F0183F8EE191188A3F8EF19002183F8F2
:10641000F11983F8F21903F58053012183F8F9117A
:10642000B4F80D18A3F8FA11C3F8FC21D4F80F281A
:10643000D37892F90320002A23F0C00306DAAB4296
:1064400006D940F20A2005B0BDE8F08FAB42F8D182
:106450006A4B20469847074600283AD1D4F80F38AF
:106460009A78002A00F0B7805D79DFF89491D81D02
:106470009B7905F00F051844B8465FFA88F39D42F2
:106480006DD80378DFF87C815F4800930025D4F84D
:106490000F389A78EBB29A4265D84379DFF86CA14D
:1064A00003F00F03019383794FF00008C51D1D44CD
:1064B000C346C146019A5FFA88F39A4256D84E49BC
:1064C000D6F8640591F8EE39514D4A4601F6F311BC
:1064D000A847D4F80F38DA7852060BD54D4AD2F8CF
:1064E000501239B999790B44B3F80910414B0B4458
:1064F000C2F85032404DB5F8F1394BBB05F5805527
:10650000D5F8500220B3B5F854323BB923786278FD
:106510001B0203F4E0631344A5F8543295F8563295
:1065200023B9B5F854223C4B211D9847237803F03A
:106530003003102B05D1B5F85412D5F850022A4B70
:1065400098470023C5F85032A5F8543285F85632E2
:10655000022F02D02D48314B9847002073E7C847DF
:1065600008F1010889E7C047013590E72B78009AC8
:1065700023F0A003934206D1B9F1000F03D16A883A
:10658000C2F30B0BD9466B78063B032B16D8D6F813
:106590006405DFF87CC002235A4603A9E047204B7C
:1065A0009DF80C10504698476B78083B012B05D896
:1065B0009DF80D101A4B0902504698476B781949FF
:1065C000CB5C5B4428461FFA83FB0D4B984708F1D0
:1065D000010805466EE740F2032034E70834210045
:1065E00007342100456350002D625000795E500051
:1065F000417950001E3621007C392100A5C650008B
:10660000FD5350002D545000333151006943210097
:10661000C96250007C492100316D0000B54E500028
:10662000A5515000D63C51002DE9F84F354BDFF80D
:10663000D8B093F83473B3F83643DFF8D090DFF86E
:10664000D0A006464FF401782A250FBBDFF8C4809E
:10665000DFF8B890DFF8B8A04FF40377FF257CBBD4
:106660002EB92D4A2A4B02214FF4027098472A4D29
:10667000DFF898902C88DFF898A040F202239C4223
:1066800028BF1C464FF40278FF274CBBBDE8F88FAB
:10669000BD4228BF3D4605EB45014900C9B25A46F7
:1066A00040465EB9D0477F1B05EB450308F1010862
:1066B000FFB20BEB430B1FFA88F8C6E7C847F2E7B7
:1066C000A54288BFE5B242462946384636B9D0478A
:1066D000641B0137A4B2A844BFB2C0E7C847F7E7BC
:1066E000A74288BFE7B22A463946404646B9D04756
:1066F000E41B08F10108A4B23D441FFA88F8C4E77E
:10670000C847F5E708342100280E2100ED78500035
:10671000D9785000281121005669210070B5104C1D
:1067200094F81032B0250E464A1C014603FB054082
:106730000C4B984794F8103205FB03450133DBB24C
:10674000032B28BF002384F8103294F81132A5F8E7
:10675000AE60022B9CBF013384F8113270BD00BFC4
:1067600008342100316D000070B5144C054694F8D2
:10677000110208B394F810321344DEB25BB2002B5E
:10678000B8BF06F1FF334FF00302B6BFDBB293FB95
:10679000F2F2B3FBF2F202EB42029B1ADBB2984236
:1067A00081BFB02203FB02400446286083BFB4F8D7
:1067B000AE300B800120002070BD00BF08342100E6
:1067C00008B9044B1847044A044B042140F21B202B
:1067D000184700BF795E50001A362100D978500062
:1067E0002DE9F04FDFF8A880B8F814321A18B2F586
:1067F0003E7FC1B00446894647DCFF26B3FBF6F76F
:1068000007F21B2ABDB2C7EB0727DF1B01331FFAB4
:106810008AFA0344BFB2A8F814326A461D4BDFF867
:1068200078B0314650469847781C30400DF8074004
:10683000371AA742A8BF27463A4649466844D84770
:10684000E41B50466A46DFF854A03146D047344036
:10685000104B0FD005F50775ADB26A463146284694
:106860009847224609EB07016846D8476A463146F1
:106870002846D04798F81332013388F81332084B72
:106880009847012041B0BDE8F08F0020FAE700BF33
:1068900008342100D9785000316D0000ED785000A7
:1068A000795E5000044B93F81332834201D9034BB5
:1068B00018470020704700BF08342100B55E500023
:1068C0002DE9F04FDFF87C8198F81332ADF5057DA6
:1068D0008342CDE90101039240F2B2805A4BDFF8C6
:1068E0006CA104AAFF2140F21B209847FB2205A9B6
:1068F00004A8D0479DF810604FF0000B0427FB253B
:1069000040F21B29019BF41901345B45A4B273D1F9
:1069100032460DF111010398DFF82CB1D047029BEC
:10692000FF211E80B7FBF1F31FFA83FA0AF21B2541
:10693000ADB2C3EB0323FF1A04AAB4FBF1F328465C
:10694000C3EB0323B8F81492B9FBF1F9E41A09F286
:106950001B29D847B5F5077F1FFA89F9BFB2A4B242
:106960004FF0FF0105D80AF507700DF20F1280B243
:10697000D84704F11003C4F5FF720DEB030107F1D2
:106980001003DFF8C8A0324F01320DEB0300C6F54B
:10699000FE74D0470134A4B204AAFF212846B847A8
:1069A0000135A4F1FF0292B20DF20F1104A8ADB2AD
:1069B0000192D047B5F5077F019A3FD104AB1A4445
:1069C000FF2140F21D20D847A945E5D804AAFF21A0
:1069D0002846B84798F81332013B88F81332B8F8C4
:1069E0001432013B9B1BA8F814321A4B9847012024
:1069F0000DF5057DBDE8F08F711C6D1A04AB2A46BC
:106A000019441846ADB2D047FE2D9DF8106011D83C
:106A100040F21D2399450DD809F1010905F1100334
:106A20001FFA89F90DEB0302FF21074B48469847EF
:106A3000FF35ADB20BF1010B274663E71446C3E700
:106A40000020D5E708342100D9785000316D0000CE
:106A5000ED785000795E500038B5074D074B04467D
:106A600040F216220021284698470423A5F8143244
:106A70000CB1034B984738BD08342100416D00002C
:106A8000795E50002DE9F047624C634D22460121AA
:106A90004FF40070A84710B12378992B26D05F4996
:106AA0005F4B604840F24B3298475F4B002098475D
:106AB0005E4B002098475E4E0721324640F21A2076
:106AC000A84718B13378992B00F09280594C23686D
:106AD000013345D1A2884FF6FF739A4240D1DFF8C7
:106AE0005881DFF8589140F2E93726E0544CFF21F5
:106AF00004F216224FF40070A84704F21532FF2169
:106B000040F20120A84704F21442FF2140F2022083
:106B1000A84704F213524E2140F20320A847494BE4
:106B20000120984794F8133284F86835464B98470B
:106B3000C1E74FF4FA60C047C847013FBFB2002F1A
:106B4000F7D1424FB847030E2370030C6370030A5A
:106B5000A370E070B847030A60F03F0023716071D2
:106B60002F4C34493A480622A04732493948062278
:106B7000A047394B2F49394800221A7099233370A6
:106B80000622A0472A4A364B072140F21A2098478E
:106B9000314B1B7813B1334B00209847324A334CAA
:106BA000FF214FF40470A8470021314B31484FF4C6
:106BB000B1529847304BA3F62662C3F800222F4B00
:106BC00098472F4B9847A0682E4BC17F9847E068A5
:106BD0002D4BC17F98471A4B93F81222C2B993F8F4
:106BE0006835ABB1BDE8F047284B072114201847A2
:106BF0001348D0F82A32002BCAD1B0F82E32002B1D
:106C0000C6D1074B0622711C00F22A209847BFE725
:106C1000BDE8F08707342100D9785000323D51009B
:106C2000316D00001E362100596A50005179500024
:106C3000003421001C0F2000CF36020003390D0064
:106C400008342100C16750008579500063250B008E
:106C50009814200032362100580A21000134210006
:106C6000ED78500029665000013321005C0A2100B4
:106C7000416D00007C3921007C49210019BE500083
:106C8000A9085100C181500025825000456E500076
:106C900008B5034B83F81202024B984708BD00BFAA
:106CA00008342100795E50002DE9F04F234F04464F
:106CB00097F81302C3B0C0B12CB197F81222204B41
:106CC000B2B120489847DFF880A0DFF880B01C4DB3
:106CD0004FF0000897F813325FFA88F6B34209D8EC
:106CE00014B11B48164B9847012043B0BDE8F08F04
:106CF0001848E7E70DF108094A460DF1060130464C
:106D0000D047B8B1BDF80630002209F803208CB195
:106D10005846A847104B304698471048104EA84791
:106D20001048A8474846A8470F48A8470D20B04735
:106D30000A20B04708F10108CCE700BF0834210061
:106D4000A57350004B435100A56850008643510085
:106D50009043510069435100757350008A435100BC
:106D6000D3390D008C4351008E43510070B5144C43
:106D700094F8690594F868358342C2B002D80020BF
:106D800042B070BD02AD0F4B2A460DF10601984787
:106D90000028F4D0BDF806300B4E0C480022EA540F
:106DA000B0472846B0470A48B0470A4B284698479C
:106DB00094F86935013384F869350120E0E700BFB4
:106DC00008342100A5685000A5735000A14351006C
:106DD00016445100A555500070B50446144E154890
:106DE0000D46B04710B11348134B9847134A92F819
:106DF0004832DBB1601B4FF6FF73984228BF18463C
:106E0000C0F30B13A2F81A32030718BFB2F81A32F4
:106E100008481EBF01339BB2A2F81A32B04728B906
:106E2000BDE870400348064B1021184770BD00BFF5
:106E3000BF6400009C4F2100AD6400007C4921002C
:106E40007B6400002DE9F041194B1A4F04460E46B1
:106E50009847800A40EA8151002208191546052307
:106E600057F832405FFA82FCDCB9052B08BF634655
:106E70000132052AF4D1104A02F5805797F84842AA
